:1008D80057454C434F4D45204241434B20544F20F0
:1008E8002000544845204341522053495200414C6E
:1008F800434F484F4C2044455445435445440054C5
:1009080055524E494E47204F4646205448450045CB
:100918004E47494E452121212100454E47494E4524
:10092800205455524E4544004F46462E2E2E2E003A
:100938005455524E494E47204F4E205448452000AA
:10094800454E47494E4520414741494E2E2E0048C5
:1009580041505059204A4F55524E4559004E4F204C
:10096800414C434F484F4C2000444554454354455F
:10097800442E2E2E004B45455020474F494E472EBA
:020988002E003F
:10080000D297C2B0D2871209DA7BFF7A0879D81260
:1008100009B77FC0120A027BFF7A0879EA1209B78A
:100820001209F330976D7F01120A027BFF7A087973
:10083000F61209B77F01120A027BFF7A09790712C3
:1008400009B77FC0120A027BFF7A0979171209B72C
:10085000D287D2B07F01120A027BFF7A0979221275
:1008600009B77FC0120A027BFF7A0979301209B7F3
:100870002097E1C2B07F01120A027BFF7A09793822
:100880001209B77FC0120A027BFF7A097948120960
:10089000B7800320978DC287C2B07F01120A027B06
:1008A000FF7A0979571209B77F01120A027BFF7A92
:1008B0000979651209B77FC0120A027BFF7A0979AC
:1008C000711209B77F01120A027BFF7A09797D1242
:0808D00009B73097D302082696
:1009DA007F38120A027F01120A027F10120A027F6E
:0909EA000C120A027F80020A02CD
:0E0A02008FA0C290C291D2921209F3C292222A
:0E0A10008FA0D290C291D2921209F3C292220C
:0609B7008B088A09890A81
:1009BD00E4F50BAB08AA09A90A850B827583001211
:0C09CD00098AFF6007120A10050B80E782
:0109D90022FB
:0E09F300E4FFFE0FBF00010EBE1FF8BF40F56F
:010A010022D2
:03000000020A1ED3
:0C0A1E00787FE4F6D8FD75810B0208001B
:10098A00BB010CE58229F582E5833AF583E0225022
:10099A0006E92582F8E622BBFE06E92582F8E2226C
:0D09AA00E58229F582E5833AF583E4932286
:00000001FF
